:020000040000FA
:0400000047EF00F0D6
:060008004B820BED03F03A
:100018004B80D8CF40F0E8CF41F0E0CF42F0D9CFC5
:1000280043F0DACF44F0F6CF45F0F7CF46F0F8CFFB
:1000380047F0F5CF48F09EAA24EF00F026EF00F035
:1000480032EF00F0ABA22BEF00F02DEF00F030EF15
:1000580000F0AB980000AB88E4EC04F09E9A48C02E
:10006800F5FF47C0F8FF46C0F7FF45C0F6FF44C09C
:10007800DAFF43C0D9FF42C0E0FF41C0E8FF40C0FB
:0A008800D8FF4B90100015EF06F0B2
:10060000006D6F746F72206D6F6465006D6F746F35
:1006100072001B6300000600C4CF31F0326A315013
:10062000326E316AC3503126000E322232BE24EFC0
:1006300003F0325007E1550E315CD8B022EF03F0E1
:1006400024EF03F028EF03F0230EBE6E68EF04F0F2
:1006500032BE34EF03F0325009E1550E315CD8A0C0
:1006600034EF03F036EF03F048EF03F032BE44EF0F
:1006700003F0325007E1AA0E315CD8B042EF03F02C
:1006800044EF03F048EF03F0320EBE6E68EF04F063
:1006900032BE54EF03F0325009E1AA0E315CD8A00B
:1006A00054EF03F056EF03F067EF03F032BE63EF51
:1006B00003F0325006E13128D8B061EF03F063EF68
:1006C00003F067EF03F03C0EBE6E68EF04F032BE3D
:1006D00072EF03F0325008E13128D8A072EF03F036
:1006E00074EF03F086EF03F032BE82EF03F0540E96
:1006F000315C010E3258D8B080EF03F082EF03F086
:1007000086EF03F0460EBE6E68EF04F032BE92EF45
:1007100003F0540E315C010E3258D8A092EF03F072
:1007200094EF03F0A6EF03F032BEA2EF03F0A90EA0
:10073000315C010E3258D8B0A0EF03F0A2EF03F005
:10074000A6EF03F0500EBE6E68EF04F032BEB2EFBB
:1007500003F0A90E315C010E3258D8A0B2EF03F0BD
:10076000B4EF03F0C6EF03F032BEC2EF03F0FE0EAB
:10077000315C010E3258D8B0C0EF03F0C2EF03F085
:10078000C6EF03F05A0EBE6E68EF04F032BED2EF31
:1007900003F0FE0E315C010E3258D8A0D2EF03F008
:1007A000D4EF03F0E6EF03F032BEE2EF03F0530EB6
:1007B000315C020E3258D8B0E0EF03F0E2EF03F004
:1007C000E6EF03F0640EBE6E68EF04F032BEF2EFA7
:1007D00003F0530E315C020E3258D8A0F2EF03F052
:1007E000F4EF03F006EF04F032BE02EF04F0A80EBF
:1007F000315C020E3258D8B000EF04F002EF04F082
:1008000006EF04F06E0EBE6E68EF04F032BE12EF1B
:1008100004F0A80E315C020E3258D8A012EF04F09A
:1008200014EF04F026EF04F032BE22EF04F0FD0EC8
:10083000315C020E3258D8B020EF04F022EF04F001
:1008400026EF04F0780EBE6E68EF04F032BE32EF91
:1008500004F0FD0E315C020E3258D8A032EF04F0E5
:1008600034EF04F046EF04F032BE42EF04F0520ED3
:10087000315C030E3258D8B040EF04F042EF04F080
:1008800046EF04F0820EBE6E68EF04F032BE52EF07
:1008900004F0520E315C030E3258D8A052EF04F02F
:1008A00054EF04F066EF04F032BE62EF04F0A70EDE
:1008B000315C030E3258D8B060EF04F062EF04F000
:1008C00066EF04F08C0EBE6E68EF04F09B0EBE6EF9
:1008D0009E9CA30E306E550EE82EFED7302EFCD710
:1008E0000000C2824B9211003706D8A03806372884
:1008F00006E13828D8A47FEF04F081EF04F091EFEF
:1009000004F0000E346E000E336EE3EF04F0010EBF
:100910003326000E3422000E3522362A3706D8A0A0
:10092000380633C0F6FF34C0F7FF35C0F8FF0800C3
:10093000F5500009D8B49FEF04F0A1EF04F0CFEF19
:1009400004F036C0F6FF060EF76E0800F5500009F9
:10095000D8B4ADEF04F0AFEF04F0CFEF04F03750B0
:100960003810D8B4B6EF04F0B8EF04F0CFEF04F0CD
:1009700036C0F6FF060EF76E0800F55033C0F6FFDE
:1009800034C0F7FF35C0F8FF0800F5CF39F039184B
:10099000D8B4CDEF04F0CFEF04F087EF04F036C009
:1009A000F6FF060EF76E0800F55033C0F6FF34C0B0
:1009B000F7FF35C0F8FF0800F5CF39F0395C336E2A
:1009C000346AD8A034061200AECF3FF017C033F01F
:1009D00018C034F03F503A6E3B6A3C6A3AC035F07A
:1009E0003BC036F03CC037F03EEC05F0000E3E6EEA
:1009F000000E3D6E29EF05F03D501724D96E3E5094
:100A00001820DA6EDF503A6E3B6A3C6A3AC033F027
:100A10003BC034F03CC035F00C0E366E000E386E24
:100A2000050E376E74EC04F033503410D8A41BEF6D
:100A300005F01DEF05F027EF05F0120E346E76EC91
:100A400005F0010E346E76EC05F03AEF05F03D4A04
:100A50003E2A17C033F018C034F09BEC05F0335039
:100A60003D5C34503E58D8A038EF05F03AEF05F021
:100A7000FCEF04F03F502DEC06F01200000E396E32
:100A8000000E386E46EF05F0384A392A38503324C4
:100A9000D96E39503420DA6EDF50D8A452EF05F009
:100AA00054EF05F044EF05F05EEF05F0384A392ABF
:100AB000010E3526000E3622000E372235C0F6FF15
:100AC00036C0F7FF37C0F8FF38503324D96E39509D
:100AD0003420DA6E0800F5CFDFFFDF50D8A473EFC3
:100AE00005F075EF05F056EF05F01200000E376EB9
:100AF000000E366E89EF05F034503624356E35C061
:100B0000F6FF060EF76E0800F5502DEC06F0364A9B
:100B1000372A34503624356E35C0F6FF060EF76E90
:100B20000800F5500009D8A498EF05F09AEF05F0F9
:100B30007CEF05F0120033C035F034C036F0A3EF7F
:100B400005F0334A342A33C0D9FF34C0DAFFDF500E
:100B5000D8A4ADEF05F0AFEF05F0A1EF05F03550EB
:100B6000335C336E36503458346E120022EC06F08B
:100B7000000E956E000E8C6EF28CF292F288F28E60
:100B8000000E946E000E8B6E000E4A6E070E496EBC
:100B9000F6EC05F0CAEF05F047EF00F092680E0E94
:100BA000C16EC08EC280C050F80B0409C06EC05028
:100BB000C70B1009C06E000EC46E000EC36E9D8C74
:100BC0009E9CF28CF28EC2821200948C948EAC9811
:100BD000B896AC94330EAF6EAB8E9E989E9AAC8A4C
:100BE000AB889D989F989D8A9F9A1200C250C30B14
:100BF0001C09C26EC282C280C2B201EF06F003EFCE
:100C000006F0FCEF05F0C450C350120094941C0E83
:100C1000BD6E9E949F84CA84030ECA125A0EBE6E85
:100C2000BD50CF0B2009BD6E120000EE01F02F0E5B
:100C3000EE6AE806FDE14B904B92000EF86E000163
:100C4000B6EF05F038EC06F03CEC06F0E5EC05F00C
:100C500006EC06F0CEEC05F01200336EACA233EFDA
:100C600006F035EF06F02EEF06F033C0ADFF1200B0
:100C7000D38CD38AD3981200D08EF28EF28C1200CD
:020000040020DA
:08000000FFFFFFFFFFFFFFFF00
:020000040030CA
:0E000000FF881F00FF8381FF0FC00FE00F403D
:00000001FF
